:101800003BC06FC054C053C052C051C050C04FC045
:101810004EC04DC04CC04BC04AC049C048C047C074
:1018200046C045C044C0040309041C037700770088
:1018300077002E00660069007300630068006C008A
:101840002E00640065000E03550053004200610045
:101850007300700012011001FF000008C016DC05C3
:101860000201010200010902120001010080320997
:10187000040000000000000011241FBECFE5D4E0EA
:10188000DEBFCDBF10E0A0E6B0E0E6E6FFE102C0BB
:1018900005900D92A636B107D9F710E0A6E6B0E0A4
:1018A00001C01D92AC39B107E1F76FD15AC3A8CF7F
:1018B000A82FB92F80E090E041E050EA609530E039
:1018C00009C02D9182279795879510F08427952739
:1018D000305EC8F36F5FA8F30895EADF8D939D93A0
:1018E0000895CF93CFB7CF93C395839BE9F7839B9D
:1018F0000BC0839B09C0839B07C0839B05C0839B50
:1019000003C0839B01C0C0C0C0917F00DF93DD276F
:10191000CA57DF4F2F932FEF839B03C02F91DF9187
:10192000E6CF0F931F934F936F9300B303FB20F900
:101930003F933BE05F931EC04E7F012F10B31C709E
:10194000E1F0216000001DC0102F4D7F22600000DB
:1019500000B30C7091F01DC04B7F2460012F00007C
:1019600010B31C7051F01EC010B31C7031F0477FD3
:1019700028601BC010B31C7009F462C04FEF297FB0
:10198000D9F2012703FB21F900B30C70B1F3237FD7
:10199000D9F2102713FB22F900C010B31C7069F3B1
:1019A000277ED1F2012703FB23F92F7CE9F200B354
:1019B0000C7019F3102713FB24F92F7929F100C0BB
:1019C00010B31C70E9F1012703FB25F92F7311F106
:1019D00000C000B30C70A1F1102713FB26F92230D0
:1019E000F8F000C010B31C7059F1012703FB27F970
:1019F0002430E0F04227000000B34993102713FB86
:101A000020F93150C8F0B6CF4F7E00B30C70C1F052
:101A10002061D3CF206210B31C7091F04F7DD6CFE0
:101A20004F7B00B30C7061F02064D9CF4F7710B3B7
:101A30001C7031F02068DCCF10E41ABF002717C0FB
:101A40003B503195C31BD04010E41ABF0881033CC2
:101A5000F9F00B34E9F020917D001981110F121378
:101A6000EDCF093651F10D3211F0013E39F70093F7
:101A700084005F913F916F914F911F910F912F9132
:101A8000DF91CAB7C6FD30CFCF91CFBFCF911895A8
:101A900020918400222369F310918200112331F5F3
:101AA000343032F13093820020937E0010917F0019
:101AB0003BE0311B30937F001BC00091820001305E
:101AC000ACF40AE53091600034FD13C0009360006F
:101AD000C2E7D0E012C005271127000019C0052772
:101AE00011271FC005271127000024C04AE502C0A6
:101AF00032ED432FC4E1D0E032E011B31C60939A81
:101B000002B311BB5CE020E866E020FF05272795C3
:101B100002BB17951C3FF8F66A95B9F720FF052719
:101B20002795000002BB17951C3FC8F620FF05272C
:101B30002795179566E01C3F02BBA0F629913A95C0
:101B400021F7037F10918300110F02BBC651D040D3
:101B500011F010937D0010E41ABF086011B3137FD9
:101B6000402F437F53E05A95F1F700C002BB11BBF1
:101B700042BB7FCFF8941BBE15BE81E08BBF1BBE5E
:101B8000E0917000F0917100099588E10FB6F8942A
:101B900081BD11BC0FBE84B7882319F004B601FEC5
:101BA000CAC114BE81E08BBF82E08BBF85B7826063
:101BB00085BF8BB780648BBF8B9A20E005C0A8954A
:101BC00086EA9EE00197F1F72150C9F78B98789447
:101BD000FF2400E090918200935097FD2EC18091E8
:101BE0007F00CCE0D0E0C81BD109CA57DF4F8091FD
:101BF0007E008D3209F0C4C0983009F01CC183EC1E
:101C0000809372008AE58093600010926A003881A8
:101C1000832F80762981882309F443C086E690E0EB
:101C200090938100809380002330C9F49B818C8144
:101C30002A81203339F48370E82FF0E0EE59FF4F0A
:101C4000808109C0203A11F477D105C0203C11F4FD
:101C50006D817AD180E08093690094E087C025305F
:101C600011F491E083C0822F8450863098F48A81E9
:101C70009B8190936D0080936C00293081F09E8150
:101C800090936E008D81827080936F0037FD69C0E4
:101C90002FEF68C0223019F481E080936B0090E050
:101CA00065C08A8110927B00222331F410927C005F
:101CB0002BE730E092E050C0253019F48093830088
:101CC00048C02630B1F58B81813019F484E598E164
:101CD00004C0823041F486E698E1909381008093BD
:101CE000800092E122C08330F9F48A81882341F494
:101CF00086E298E1909381008093800094E015C083
:101D0000813041F48AE298E19093810080938000D1
:101D10009CE10BC0823041F486E498E1909381000D
:101D2000809380009EE001C090E080E480936A0090
:101D30001DC0283019F425E830E009C0293019F415
:101D40008093850006C02A3021F42BE730E091E033
:101D500003C02BE730E090E03093810020938000B7
:101D600005C0292F80E880936A0007C08F818823EF
:101D700019F42E81291708F0292F209361005BC0E8
:101D800080916A0087FF57C080916E00592F891794
:101D900008F4582F851B80936E0060E0882309F4B7
:101DA00061E070916F00E0916C00F0916D0040E097
:101DB00037C0CF018F739070892B49F4F89483E07A
:101DC00080935700E895789407B600FCFDCF4E5FEE
:101DD000F8948991999121E00C0120935700E8959E
:101DE000112478949F012E5F3F4FC9018F7390702B
:101DF000892B31F0662399F0451788F0772379F025
:101E0000F89485E080935700E895789407B600FC35
:101E1000FDCFF89481E180935700E8957894F9011B
:101E2000451708F4C6CFF0936D00E0936C0066236D
:101E300011F010926100109282008091600084FF86
:101E400065C0809161008F3F09F460C0182F893010
:101E500008F018E0811B809361008091720098E87F
:101E6000892780937200112309F43EC080916A0093
:101E700087FF1EC080916E00811708F4182F811B08
:101E800080936E00E0916C00F0916D00A3E7B0E0EC
:101E900003C084918D933196812F90E08D589F4F90
:101EA000A817B907B1F7F0936D00E0936C001AC062
:101EB000E0918000F091810086FF09C0912FA3E797
:101EC000B0E084918D9331969150D9F707C0912F4E
:101ED000A3E7B0E081918D939150E1F7F0938100F9
:101EE000E0938000193060F483E790E0612FF5DC27
:101EF000612F6C5F6C3041F08FEF8093610004C004
:101F00008FEF809361006EE16093600094E180B395
:101F10008C7031F49150D9F71092830010927D00AB
:101F200080916B00882309F455CEFA9409F052CEC3
:101F3000015009F04FCE1EDEE199FECF9FBB8EBB54
:101F4000E09A99278DB30895262FE199FECF9FBB84
:101F50008EBB2DBB0FB6F894E29AE19A0FBE0196A4
:061F60000895F894FFCF84
:061F66005AFF1E93070064
:0400000300001800E1
:00000001FF
