:103800005CC000008FC0000073C0000071C00000E9
:103810006FC000006DC000006BC0000069C00000F8
:1038200067C0000065C0000063C0000061C0000008
:103830005FC000005DC000005BC0000059C0000018
:1038400057C0000055C0000053C0000051C0000028
:103850004FC000004DC000004BC0000049C0000038
:1038600047C0000045C00000040309041C037700A2
:10387000770077002E00660069007300630068001F
:103880006C002E00640065000E03550053004200DA
:1038900061007300700012011001FF000008C016E3
:1038A000DC05020101020001090212000101008091
:1038B0003209040000000000000011241FBECFEFF9
:1038C000D4E0DEBFCDBF11E0A0E0B1E0E0EBFFE36C
:1038D00002C005900D92A630B107D9F711E0A6E01D
:1038E000B1E001C01D92AC33B107E1F770D15EC306
:1038F00087CFA82FB92F80E090E041E050EA609593
:1039000030E009C02D9182279795879510F0842784
:103910009527305EC8F36F5FA8F30895EADF8D93B3
:103920009D930895CF93CFB7CF93C3954B9BE9F762
:103930004B9B0BC04B9B09C04B9B07C04B9B05C0CF
:103940004B9B03C04B9B01C0C0C0C0911F01DF93C4
:10395000DD27CA5DDE4F2F932FEF4B9B03C02F91C6
:10396000DF91E6CF0F931F934F936F9309B103FB42
:1039700020F93F933BE05F931EC04E7F012F19B1AA
:103980001C70E1F0216000001DC0102F4D7F2260EF
:10399000000009B10C7091F01DC04B7F2460012F15
:1039A000000019B11C7051F01EC019B11C7031F02B
:1039B000477F28601BC019B11C7009F462C04FEF2B
:1039C000297FD9F2012703FB21F909B10C70B1F36A
:1039D000237FD9F2102713FB22F900C019B11C7004
:1039E00069F3277ED1F2012703FB23F92F7CE9F24B
:1039F00009B10C7019F3102713FB24F92F7929F161
:103A000000C019B11C70E9F1012703FB25F92F73E0
:103A100011F100C009B10C70A1F1102713FB26F9B8
:103A20002230F8F000C019B11C7059F1012703FBD6
:103A300027F92430E0F04227000009B1499310270C
:103A400013FB20F93150C8F0B6CF4F7E09B10C708E
:103A5000C1F02061D3CF206219B11C7091F04F7D6D
:103A6000D6CF4F7B09B10C7061F02064D9CF4F776E
:103A700019B11C7031F02068DCCF11E01CBB0027AD
:103A800017C03B503195C31BD04011E01CBB0881CF
:103A9000033CF9F00B34E9F020911D011981110F5D
:103AA0001213EDCF093651F10D3211F0013E39F705
:103AB000009324015F913F916F914F911F910F915E
:103AC0002F91DF91CCB3C0FD30CFCF91CFBFCF913D
:103AD000189520912401222369F3109122011123CA
:103AE00031F5343032F13093220120931E011091D0
:103AF0001F013BE0311B30931F011BC000912201CD
:103B00000130ACF40AE53091000134FD13C000939C
:103B10000001C2E1D1E012C005271127000019C041
:103B2000052711271FC005271127000024C04AE5DB
:103B300002C032ED432FC4E1D0E032E01AB11C6084
:103B40005B9A0BB11AB95CE020E866E020FF05271C
:103B500027950BB917951C3FF8F66A95B9F720FF22
:103B60000527279500000BB917951C3FC8F620FFC5
:103B700005272795179566E01C3F0BB9A0F62991FC
:103B80003A9521F7037F10912301110F0BB9C6510C
:103B9000D04011F010931D0111E01CBB08601AB158
:103BA000137F402F437F53E05A95F1F700C00BB9C4
:103BB0001AB94BB97FCFF8941DBA1092690081E011
:103BC00085BF15BEE0911001F0911101099588E1C2
:103BD0000FB6F89480936000109260000FBE84B717
:103BE000882319F004B601FECAC114BE81E085BF66
:103BF00082E085BF80916900826080936900E89AC5
:103C0000539A20E005C0A89586EA9EE00197F1F757
:103C10002150C9F753987894FF2400E09091220135
:103C2000935097FD2EC180911F01CCE0D0E0C81BBE
:103C3000D109CA5DDE4F80911E018D3209F0C4C0EA
:103C4000983009F01CC183EC809312018AE58093BF
:103C5000000110920A013881832F80762981882300
:103C600009F443C086E091E0909321018093200104
:103C70002330C9F49B818C812A81203339F48370ED
:103C8000E82FF0E0EE5FFE4F808109C0203A11F48A
:103C900077D105C0203C11F46D817AD180E080930A
:103CA000090194E087C0253011F491E083C0822F90
:103CB0008450863098F48A819B8190930D01809383
:103CC0000C01293081F09E8190930E018D818270CC
:103CD00080930F0137FD69C02FEF68C0223019F4BF
:103CE00081E080930B0190E065C08A8110921B01F6
:103CF000222331F410921C012BE131E092E050C0FC
:103D0000253019F48093230148C02630B1F58B810A
:103D1000813019F486E998E304C0823041F488EADE
:103D200098E3909321018093200192E122C0833097
:103D3000F9F48A81882341F488E698E3909321017D
:103D40008093200194E015C0813041F48CE698E323
:103D500090932101809320019CE10BC0823041F4BB
:103D600088E898E390932101809320019EE001C0B0
:103D700090E080E480930A011DC0283019F425E208
:103D800031E009C0293019F48093250106C02A309A
:103D900021F42BE131E091E003C02BE131E090E030
:103DA000309321012093200105C0292F80E88093C2
:103DB0000A0107C08F81882319F42E81291708F082
:103DC000292F209301015BC080910A0187FF57C012
:103DD00080910E01592F891708F4582F851B809365
:103DE0000E0160E0882309F461E070910F01E09119
:103DF0000C01F0910D0140E037C0CF018F7790703A
:103E0000892B49F4F89483E080935700E8957894DF
:103E100007B600FCFDCF4E5FF8948991999121E09F
:103E20000C0120935700E895112478949F012E5F90
:103E30003F4FC9018F779070892B31F0662399F03D
:103E4000451788F0772379F0F89485E08093570040
:103E5000E895789407B600FCFDCFF89481E1809353
:103E60005700E8957894F901451708F4C6CFF09308
:103E70000D01E0930C01662311F0109201011092E4
:103E800022018091000184FF65C0809101018F3F74
:103E900009F460C0182F893008F018E0811B809366
:103EA00001018091120198E8892780931201112362
:103EB00009F43EC080910A0187FF1EC080910E0167
:103EC000811708F4182F811B80930E01E0910C01DB
:103ED000F0910D01A3E1B1E003C084918D9331967F
:103EE000812F90E08D5E9E4FA817B907B1F7F09330
:103EF0000D01E0930C011AC0E0912001F091210125
:103F000086FF09C0912FA3E1B1E084918D93319692
:103F10009150D9F707C0912FA3E1B1E081918D9322
:103F20009150E1F7F0932101E0932001193060F402
:103F300083E191E0612FF2DC612F6C5F6C3041F026
:103F40008FEF8093010104C08FEF809301016EE138
:103F50006093000194E189B18C7031F49150D9F7EC
:103F60001092230110921D0180910B01882309F406
:103F700055CEFA9409F052CE015009F04FCE1BDE17
:103F8000F999FECF92BD81BDF89A992780B5089521
:103F9000262FF999FECF1FBA92BD81BD20BD0FB665
:103FA000F894FA9AF99A0FBE01960895F894FFCF03
:063FB0005AFF1E940600FA
:0400000300003800C1
:00000001FF
