:103800005CC000008FC0000073C0000071C00000E9
:103810006FC000006DC000006BC0000069C00000F8
:1038200067C0000065C0000063C0000061C0000008
:103830005FC000005DC000005BC0000059C0000018
:1038400057C0000055C0000053C0000051C0000028
:103850004FC000004DC000004BC0000049C0000038
:1038600047C0000045C00000040309041C037700A2
:10387000770077002E00660069007300630068001F
:103880006C002E00640065000E03550053004200DA
:1038900061007300700012011001FF000008C016E3
:1038A000DC05020101020001090212000101008091
:1038B0003209040000000000000011241FBECFEFF9
:1038C000D4E0DEBFCDBF11E0A0E0B1E0E4ECFFE367
:1038D00002C005900D92A630B107D9F711E0A6E01D
:1038E000B1E001C01D92AD33B107E1F73BD168C330
:1038F00087CFA82FB92F80E090E041E050EA609593
:1039000030E009C02D9182279795879510F0842784
:103910009527305EC8F36F5FA8F30895EADF8D93B3
:103920009D930895CF93CFB7CF93DF93C3954B9BD0
:10393000E9F74B9B0BC04B9B09C04B9B07C04B9BB4
:1039400005C04B9B03C04B9B01C089C06F93C091C6
:103950002001DD27C95DDE4F2F9365E54B9B03C03A
:103960002F916F91E6CF0F931F934F9320E040E18B
:103970005F9309B10C7003FB27F93F9350E03BE0E4
:1039800039C01C7040642F77012F5F5F1EC04068F4
:1039900019B11C702F7752501FC0406409B12F77A6
:1039A0000C70D1F15F5F00C023C0406219B12F7766
:1039B0001C7091F15F5F00C025C00C701027515042
:1039C00012F45D5F0000115027952C3F19B1C8F625
:1039D0001C700127015027952C3FC8F642274993B8
:1039E00009B10C7010274F73115027952C3FA8F682
:1039F0004695469519B11C7079F00127015027951D
:103A00002C3F98F66B5A60F3315009B1B0F600C004
:103A100011E01CBB002717C03B503195C31BD040A1
:103A200011E01CBB0881033CF9F00B34E9F0209154
:103A30001E011981110F1213EDCF093651F10D320C
:103A400011F0013E39F7009325013F915F914F91AD
:103A50001F910F912F916F91CCB3C0FD67CFDF9174
:103A6000CF91CFBFCF91189520912501222369F3E3
:103A700010912301112339F534303AF130932301A9
:103A800020931F01109120013BE0311B3093200156
:103A90001CC0009123010130B4F40AE5309100010B
:103AA00034FD14C000930001C3E1D1E013C0052729
:103AB00010E000C000000BB91AC0052710E0221F5B
:103AC0001DC010E021C04AE502C032ED432FC4E121
:103AD000D0E032E01AB11C605B9A0BB11AB95CE01D
:103AE00020E865E320FF05270BB9279517951C3FB4
:103AF000F0F66695B8F7B1F720FF05270BB92795C3
:103B000017951C3FD0F62795179517FF052700003E
:103B10001C3F0BB9B0F629913A9519F7037F109124
:103B20002401110FC651D0400BB911F010931E01A2
:103B300011E01CBB08601AB1137F402F437F54E093
:103B40005A95F1F70BB91AB94BB97FCFF8941DBA52
:103B50001092690081E085BF15BEE0911101F091DE
:103B60001201099588E10FB6F894809360001092D5
:103B700060000FBE84B7882319F004B601FE09C2A5
:103B800014BE81E085BF82E085BF809169008260BC
:103B900080936900E89A539A20E005C0A89580EACE
:103BA0009FE00197F1F72150C9F753987894CC24FE
:103BB000DD2490912301935097FD61C180912001F4
:103BC0000CE010E0081B1109095D1E4F80911F01D8
:103BD0008D3209F0DDC0983009F04FC183EC80933D
:103BE00013018AE58093000110920A01D8013C91EB
:103BF000832F807611962C911197882309F451C058
:103C000086E091E090932201809321012330F9F422
:103C100013969C91139714968C91149712962C914D
:103C2000203339F48370E82FF0E0EE5FFE4F80819F
:103C30000AC0203A11F4AED106C0203C19F4F801B4
:103C40006581B0D180E08093090194E093C0253074
:103C500011F491E08FC0822F84508630D8F4D801BF
:103C600012968D919C91139790930D0180930C0166
:103C70002930A9F016969C91169790930E011596EF
:103C80008C91827080930F012093100137FD6DC0DD
:103C90002FEF6CC0223019F481E080930B0190E08B
:103CA00069C0F801828110921C01222331F4109224
:103CB0001D012CE131E092E053C0253019F48093CE
:103CC00024014BC02630C9F5D80113968C91813060
:103CD00019F486E998E304C0823041F488EA98E355
:103CE000909322018093210192E123C0833001F55A
:103CF000F8018281882341F488E698E390932201B9
:103D00008093210194E015C0813041F48CE698E362
:103D100090932201809321019CE10BC0823041F4F9
:103D200088E898E390932201809321019EE001C0EE
:103D300090E080E480930A011DC0283019F426E247
:103D400031E009C0293019F48093260106C02A30D9
:103D500021F42CE131E091E003C02CE131E090E06E
:103D6000309322012093210105C0292F80E8809300
:103D70000A010BC0D80117968C911797882321F45C
:103D800016962C91291708F0292F2093010175C050
:103D900080910A0187FF71C080910E01F92E891769
:103DA00008F4F82E8F1980930E01EE24882311F465
:103DB000EE24E39480911001873010F0E80114C0E4
:103DC00050910F01E0910C01F0910D0140E04AC0CB
:103DD00080910C0190910D01019690930D018093BB
:103DE0000C0101976991DED0FE01E01BEF1580F315
:103DF00040C0CF018F779070892B49F4F89483E00D
:103E000080935700E895789407B600FCFDCF4E5F8D
:103E1000F894D8018D919D918D0121E00C012093A2
:103E20005700E895112478949F012E5F3F4FC901F8
:103E30008F779070892B31F0EE2099F04F1588F034
:103E4000552379F0F89485E080935700E8957894AD
:103E500007B600FCFDCFF89481E180935700E89508
:103E60007894F9014F1508F4C4CFF0930D01E09355
:103E70000C01EE2011F010920101109223018091AB
:103E8000000184FF71C0809101018F3F09F46CC073
:103E9000182F893008F018E0811B80930101809170
:103EA000130198E8892780931301112309F44AC06C
:103EB00080910A0187FF2AC080910E01811708F4C2
:103EC000182F811B80930E0100911001C4E1D1E0F5
:103ED00015C0E0910C01F0910D01073018F0CF01F1
:103EE00059D001C084918883219680910C019091D2
:103EF0000D01019690930D0180930C01812F90E0AC
:103F00008C5E9E4FC817D90721F71AC0E091210196
:103F1000F091220186FF09C0912FA4E1B1E08491C4
:103F20008D9331969150D9F707C0912FA4E1B1E05C
:103F300081918D939150E1F7F0932201E09321015B
:103F4000193060F484E191E0612FE8DC612F6C5F4F
:103F50006C3041F08FEF8093010104C08FEF8093AC
:103F600001016EE16093000194E189B18C7031F43C
:103F70009150D9F71092240110921E0180910B01EB
:103F8000882309F416CECA9409F013CEDA9409F006
:103F900010CEDCDDF999FECF92BD81BDF89A99274C
:103FA00080B50895262FF999FECF1FBA92BD81BD25
:103FB00020BD0FB6F894FA9AF99A0FBE01960895AB
:043FC000F894FFCFA3
:063FC4005AFF1E940600E6
:0400000300003800C1
:00000001FF
